:020000020000FC
:100000000C9400010C941E010C9440010C945701B7
:1002000008E00EBF0FE50EBF00E00ABB00E004BB34
:100210000FEF07BB0FEF01BB80E090E0A0E0B0E084
:1002200047EE53E05BBD4ABD49E043BFC19AD99A4E
:10023000A99A00E40BBF78940C941C010F931F93B0
:100240002F93A3950AE0A01791F011E0B11719F4CC
:1002500001E008BBB0E08395939502E0901761F44C
:1002600090E001E010B3102712BB0C943C01B1E008
:1002700000E008BB2ED0A0E00F911F912F91789441
:1002800080E090E0A0E0B0E00F931F9301E00BBB93
:1002900010E012BB19B71E7F19BF0E94760101E062
:1002A00005BB11E019BF78940F911F91189547EE87
:1002B00053E05BBD4ABD49E043BF0F931F9301E08C
:1002C00008BB10E012BB00E40BBF78940F911F91A4
:1002D00018954F933F9340E04DBD4CBD43E04BBD5F
:1002E00047EE4ABD40E04FBD49E04EBD4F933F93BE
:1002F00040E04DBD4CBD47E04BBD4FEC4ABD40E03A
:100300004FBD49E04EBD48B744FFFDCF40E148BF77
:0C03100030E03FBD3EBD3F914F9108958D
:00000001FF
